S00C0000546573742E7372656378
S113000045C0000011C100005EC000005CC00000DB
S11300105AC0000058C0000056C0000054C0000080
S113002052C0000050C000004EC000004CC0000090
S11300304AC0000048C0000046C0000045C000009F
S113004042C0000040C000003EC000003CC00000B0
S11300503AC0000038C0000036C0000034C00000C0
S113006032C0000030C000002EC000002CC00000D0
S11300702AC0000028C0000026C0000024C00000E0
S113008022C0000020C000001EC0000011241FBEBA
S1130090CFEFD0E1DEBFCDBF11E0A0E0B1E0E8E4F6
S11300A0FAE000E00BBF02C007900D92A83BB10735
S11300B0D9F721E0A8EBB1E001C01D92AB3BB20738
S11300C0E1F750D1BFC49CCF1F920F920FB60F928D
S11300D011248F93F8948091B8018F5F8093B801B5
S11300E078948F910F900FBE0F901F901895369AA9
S11300F0349BFECF84B195B1089590ED980F98305C
S1130100F0F490E897BBE82FF0E0EE0FFF1FE95BF7
S1130110FE4F2081318140E050E060E070E880E7EC
S113012090E077D137BD26BD86B597B523E0969587
S113013087952A95E1F79093790080937800089544
S11301405D9BFECF8CB95D9A08950F931F93CF9357
S11301508C01C0E0F801EC0FF11D8081882319F0B7
S1130160CF5FEEDFF7CFCF911F910F910895EF92FC
S1130170FF920F931F93CF93DF93CDB7DEB76097B2
S11301800FB6F894DEBF0FBECDBF81E08093BA01F5
S11301908093620000E011E0CE0101967C01809121
S11301A0BA018823D1F0A3DF9F938F931F930F93FA
S11301B0FF92EF926CD1C701C8DF9FEF2FE382E07B
S11301C0915020408040E1F700C000000F900F9054
S11301D00F900F900F900F90E2CF109262006096F4
S11301E00FB6F894DEBF0FBECDBFDF91CF911F9144
S11301F00F91FF90EF9008955F9B02C08CB108951A
S113020080E0089591E09093BA019091BA01992306
S113021019F073DFF1DFF9CF17BA08955F9B02C0BD
S11302208CB1FCCF5F9A08951F920F920FB60F9274
S113023011240BB60F922F933F934F935F936F93B9
S11302407F938F939F93AF93BF93EF93FF93F89410
S11302501092BA011092B901E1DF7894FF91EF9105
S1130260BF91AF919F918F917F916F915F914F91CA
S11302703F912F910F900BBE0F900FBE0F901F90C8
S113028018958FE083BF82E087BF88E481BF86B77B
S1130290826086BF08951092B8019091BA019923A3
S11302A021F09091B8019817C0F31092B801089505
S11302B087B78D7F87BF0895CF93DF9381E08093C5
S11302C0BA01DFDFD1E0C1E08091BA01882381F077
S11302D0CBBBD13021F4CC0FC03811F405C0C69586
S11302E0C13019F4D1E001C0D0E082E3D4DFECCF17
S11302F0DFDF1BBADF91CF9108951F93CF93DF9374
S1130300C82FBFDFC63691F4C5E0D0E011E080917C
S1130310BA01811104C0DF91CF911F91C9CF2197F8
S1130320D1F315BB110F81E0B6DFF1CFC23799F7D6
S1130330C9E0D0E010E88091BA01882361F32197E5
S113034051F315BB169581E0A6DFF5CF81E08093CC
S1130350BA018091BA01882319F04EDFCEDFF9CFBC
S113036015BA08958FEF8ABB8898809161008C7FBD
S11303708160809361008FE084BB82B18C7F826056
S113038082B921E029BF93E090936A0088B7816025
S113039088BF27B986E886B91BB888E18AB986E0A0
S11303A0809395001092900099B98FB58A608FBDA3
S11303B08EB589618EBD10927A001DBC1CBC7894E8
S11303C060DFC1E08091B901811105C08BE091E04B
S11303D0BCDEC093B90110DF8C3499F038F480335B
S11303E088F38833A0F0833471F0ECCF833659F06E
S11303F018F4833551F0E6CF8C3619F0833729F0A1
S1130400E1CF5ADFDFCFB3DEDDCFA0DFDBCFFADE13
S1130410D9CF052E97FB16F400940FD057FD05D0C5
S113042014D007FC02D046F408C05095409530958E
S113043021953F4F4F4F5F4F08959095809570954C
S113044061957F4F8F4F9F4F0895A1E21A2EAA1BEB
S1130450BB1BFD010DC0AA1FBB1FEE1FFF1FA21770
S1130460B307E407F50720F0A21BB30BE40BF50B6D
S1130470661F771F881F991F1A9469F760957095F6
S1130480809590959B01AC01BD01CF0108950F9318
S11304901F93CF93DF93CDB7DEB72E970FB6F894A3
S11304A0DEBF0FBECDBF0D891E8986E08C831A8303
S11304B009838FEF9FE79E838D83AE01475E5F4F75
S11304C06F89788DCE01019610D0EF81F885E00F09
S11304D0F11F10822E960FB6F894DEBF0FBECDBF6B
S11304E0DF91CF911F910F9108952F923F924F92D8
S11304F05F926F927F928F929F92AF92BF92CF92B0
S1130500DF92EF92FF920F931F93CF93DF93CDB7B8
S1130510DEB72B970FB6F894DEBF0FBECDBF6C01CC
S11305207B018A01FC0117821682838181FFBFC18E
S1130530CE0101963C01F6019381F70193FD85916B
S113054093FF81917F01882309F4ADC1853239F489
S113055093FD859193FF81917F01853221F4B6014A
S113056090E0D6D1E8CF912C212C312CFFE1F3156A
S1130570D8F08B3279F038F4803279F08332A1F4F8
S1130580232D20611DC08D3261F0803369F4232D49
S1130590216016C0832D8260382EE32DE4603E2E48
S11305A02AC0F32DF8601DC037FC2DC020ED280FA4
S11305B02A3040F08E32B9F436FC75C1232D206404
S11305C0322E19C036FE06C08AE0989E200D1124F2
S11305D0922E11C0EAE02E9E200D1124222EF32D1E
S11305E0F0623F2E08C08C3621F4832D8068382EAB
S11305F002C0883641F4F70193FD859193FF819100
S11306007F018111B3CF982F9F7D9554933028F4A7
S11306100C5F1F4F9FE399830DC0833631F08337FE
S113062071F0833509F055C020C0F80180818983B9
S11306300E5F1F4F88248394912C530112C028010C
S1130640F2E04F0E511CF801A080B18036FE03C0C9
S1130650692D70E002C06FEF7FEFC5014ED14C01F0
S11306608201F32DFF773F2E15C0280122E0420EB0
S1130670511CF801A080B18036FE03C0692D70E0E2
S113068002C06FEF7FEFC5012DD14C01F32DF0684F
S11306903F2E820133FC19C0822D90E08816990602
S11306A0A0F4B60180E290E033D12A94F5CFF501AD
S11306B037FC859137FE81915F01B60190E028D126
S11306C021102A9421E0821A91088114910479F767
S11306D0E1C0843611F0893639F5F80137FE07C0D8
S11306E060817181828193810C5F1F4F08C060819A
S11306F07181072E000C880B990B0E5F1F4FF32D91
S1130700FF763F2E97FF09C090958095709561956F
S11307107F4F8F4F9F4FF0683F2E2AE030E0A301B8
S113072033D1882E861844C0853731F4232D2F7E8B
S1130730B22E2AE030E025C0932D997FB92E8F3652
S1130740C1F018F4883579F0AEC0803719F08837D5
S113075021F0A9C0E92FE061BE2EB4FE0DC0FB2D2F
S1130760F460BF2E09C034FE0AC0292F2660B22EC1
S113077006C028E030E005C020E130E002C020E1FE
S113078032E0F801B7FE07C06081718182819381F4
S11307900C5F1F4F06C06081718180E090E00E5FA6
S11307A01F4FA301F1D0882E8618FB2DFF773F2E13
S11307B036FE0DC0232D2E7FA22E891458F434FE4C
S11307C00BC032FC09C0832D8E7EA82E05C0B82C28
S11307D0A32C03C0B82C01C0B92CA4FE0FC0FE0189
S11307E0E80DF11D8081803321F49A2D997EA92E84
S11307F009C0A2FE06C0B394B39404C08A2D8678BF
S113080009F0B394A3FC10C0A0FE06C0B21480F497
S1130810280C922C9B180DC0B21458F4B60180E237
S113082090E076D0B394F8CFB21418F42B1802C029
S1130830982C212CA4FE0FC0B60180E390E068D070
S1130840A2FE16C0A1FC03C088E790E002C088E5C0
S113085090E0B6010CC08A2D867851F0A1FE02C04A
S11308608BE201C080E2A7FC8DE2B60190E050D09B
S1130870891430F4B60180E390E04AD09A94F8CF1A
S11308808A94F301E80DF11D8081B60190E040D017
S11308908110F6CF222009F44ECEB60180E290E01A
S11308A037D02A94F7CFF6018681978102C08FEF63
S11308B09FEF2B960FB6F894DEBF0FBECDBFDF912E
S11308C0CF911F910F91FF90EF90DF90CF90BF9049
S11308D0AF909F908F907F906F905F904F903F90DC
S11308E02F900895FC010590615070400110D8F7D5
S11308F0809590958E0F9F1F0895FC016150704064
S113090001900110D8F7809590958E0F9F1F089540
S11309100F931F93CF93DF93FB01238121FD03C02A
S11309208FEF9FEF2CC022FF16C046815781248190
S113093035814217530744F4A081B1819D012F5F93
S11309403F4F318320838C93268137812F5F3F4F24
S11309503783268314C08B01EC01FB010084F185ED
S1130960E02D0995892BE1F6D80116968D919C917D
S11309701797019617969C938E931697CE01DF9145
S1130980CF911F910F910895FA01AA27283051F1B0
S1130990203181F1E8946F936E7F6E5F7F4F8F4FAC
S11309A09F4FAF4FB1E03ED0B4E03CD0670F781F0B
S11309B0891F9A1FA11D680F791F8A1F911DA11DF0
S11309C06A0F711D811D911DA11D20D009F4689429
S11309D03F912AE0269F11243019305D3193DEF6D1
S11309E0CF010895462F4770405D4193B3E00FD087
S11309F0C9F7F6CF462F4F70405D4A3318F0495D72
S1130A0031FD4052419302D0A9F7EACFB4E0A69554
S1130A109795879577956795BA95C9F70097610576
S1130A20710508959B01AC010A2E069457954795CC
S1130A3037952795BA95C9F7620F731F841F951FC1
S10B0A40A01D0895F894FFCFF6
S1130A48434453203A2025640D0A002B2B2B2B2BCF
S1130A582B204D656E75202B2B2B2B2B2B0D0A4C25
S1130A68203A204C45440D0A43203A204344530D70
S1130A780A30207E2037203A205069616E6F202882
S1130A884C6F77204320746F204869676820432996
S1130A980D0A53203A2053746570204D6F746F7299
S1130AA82028522C72203A20436C6F636B57697369
S1130AB86520462C66203A20436F756E74436C6F2C
S1130AC8636B57697365436C6F636B576973652907
S1130AD80D0A5075736820427574746F6E203A203D
S1130AE853746F700D0A000B024B029302BA020F83
S10B0AF8037003DB0316040084
S9030000FC
